{
  "_format": "hh-sol-artifact-1",
  "contractName": "MyEpicNFT",
  "sourceName": "contracts/MyEpicNFT.sol",
  "abi": [
    {
      "inputs": [],
      "stateMutability": "nonpayable",
      "type": "constructor"
    },
    {
      "anonymous": false,
      "inputs": [
        {
          "indexed": true,
          "internalType": "address",
          "name": "owner",
          "type": "address"
        },
        {
          "indexed": true,
          "internalType": "address",
          "name": "approved",
          "type": "address"
        },
        {
          "indexed": true,
          "internalType": "uint256",
          "name": "tokenId",
          "type": "uint256"
        }
      ],
      "name": "Approval",
      "type": "event"
    },
    {
      "anonymous": false,
      "inputs": [
        {
          "indexed": true,
          "internalType": "address",
          "name": "owner",
          "type": "address"
        },
        {
          "indexed": true,
          "internalType": "address",
          "name": "operator",
          "type": "address"
        },
        {
          "indexed": false,
          "internalType": "bool",
          "name": "approved",
          "type": "bool"
        }
      ],
      "name": "ApprovalForAll",
      "type": "event"
    },
    {
      "anonymous": false,
      "inputs": [
        {
          "indexed": false,
          "internalType": "address",
          "name": "sender",
          "type": "address"
        },
        {
          "indexed": false,
          "internalType": "uint256",
          "name": "tokenId",
          "type": "uint256"
        }
      ],
      "name": "NewEpicNFTMinted",
      "type": "event"
    },
    {
      "anonymous": false,
      "inputs": [
        {
          "indexed": true,
          "internalType": "address",
          "name": "from",
          "type": "address"
        },
        {
          "indexed": true,
          "internalType": "address",
          "name": "to",
          "type": "address"
        },
        {
          "indexed": true,
          "internalType": "uint256",
          "name": "tokenId",
          "type": "uint256"
        }
      ],
      "name": "Transfer",
      "type": "event"
    },
    {
      "inputs": [
        {
          "internalType": "address",
          "name": "to",
          "type": "address"
        },
        {
          "internalType": "uint256",
          "name": "tokenId",
          "type": "uint256"
        }
      ],
      "name": "approve",
      "outputs": [],
      "stateMutability": "nonpayable",
      "type": "function"
    },
    {
      "inputs": [
        {
          "internalType": "address",
          "name": "owner",
          "type": "address"
        }
      ],
      "name": "balanceOf",
      "outputs": [
        {
          "internalType": "uint256",
          "name": "",
          "type": "uint256"
        }
      ],
      "stateMutability": "view",
      "type": "function"
    },
    {
      "inputs": [
        {
          "internalType": "uint256",
          "name": "tokenId",
          "type": "uint256"
        }
      ],
      "name": "getApproved",
      "outputs": [
        {
          "internalType": "address",
          "name": "",
          "type": "address"
        }
      ],
      "stateMutability": "view",
      "type": "function"
    },
    {
      "inputs": [],
      "name": "getNFTsLeftToMint",
      "outputs": [
        {
          "internalType": "uint256",
          "name": "",
          "type": "uint256"
        }
      ],
      "stateMutability": "view",
      "type": "function"
    },
    {
      "inputs": [],
      "name": "getTotalNFTsMintedSoFar",
      "outputs": [
        {
          "internalType": "uint256",
          "name": "",
          "type": "uint256"
        }
      ],
      "stateMutability": "view",
      "type": "function"
    },
    {
      "inputs": [
        {
          "internalType": "address",
          "name": "owner",
          "type": "address"
        },
        {
          "internalType": "address",
          "name": "operator",
          "type": "address"
        }
      ],
      "name": "isApprovedForAll",
      "outputs": [
        {
          "internalType": "bool",
          "name": "",
          "type": "bool"
        }
      ],
      "stateMutability": "view",
      "type": "function"
    },
    {
      "inputs": [],
      "name": "makeAnEpicNFT",
      "outputs": [],
      "stateMutability": "nonpayable",
      "type": "function"
    },
    {
      "inputs": [],
      "name": "name",
      "outputs": [
        {
          "internalType": "string",
          "name": "",
          "type": "string"
        }
      ],
      "stateMutability": "view",
      "type": "function"
    },
    {
      "inputs": [
        {
          "internalType": "uint256",
          "name": "tokenId",
          "type": "uint256"
        }
      ],
      "name": "ownerOf",
      "outputs": [
        {
          "internalType": "address",
          "name": "",
          "type": "address"
        }
      ],
      "stateMutability": "view",
      "type": "function"
    },
    {
      "inputs": [
        {
          "internalType": "uint256",
          "name": "tokenId",
          "type": "uint256"
        }
      ],
      "name": "pickRandomColor",
      "outputs": [
        {
          "internalType": "string",
          "name": "",
          "type": "string"
        }
      ],
      "stateMutability": "view",
      "type": "function"
    },
    {
      "inputs": [
        {
          "internalType": "uint256",
          "name": "tokenId",
          "type": "uint256"
        }
      ],
      "name": "pickRandomFirstWord",
      "outputs": [
        {
          "internalType": "string",
          "name": "",
          "type": "string"
        }
      ],
      "stateMutability": "view",
      "type": "function"
    },
    {
      "inputs": [
        {
          "internalType": "uint256",
          "name": "tokenId",
          "type": "uint256"
        }
      ],
      "name": "pickRandomSecondWord",
      "outputs": [
        {
          "internalType": "string",
          "name": "",
          "type": "string"
        }
      ],
      "stateMutability": "view",
      "type": "function"
    },
    {
      "inputs": [
        {
          "internalType": "uint256",
          "name": "tokenId",
          "type": "uint256"
        }
      ],
      "name": "pickRandomThirdWord",
      "outputs": [
        {
          "internalType": "string",
          "name": "",
          "type": "string"
        }
      ],
      "stateMutability": "view",
      "type": "function"
    },
    {
      "inputs": [
        {
          "internalType": "address",
          "name": "from",
          "type": "address"
        },
        {
          "internalType": "address",
          "name": "to",
          "type": "address"
        },
        {
          "internalType": "uint256",
          "name": "tokenId",
          "type": "uint256"
        }
      ],
      "name": "safeTransferFrom",
      "outputs": [],
      "stateMutability": "nonpayable",
      "type": "function"
    },
    {
      "inputs": [
        {
          "internalType": "address",
          "name": "from",
          "type": "address"
        },
        {
          "internalType": "address",
          "name": "to",
          "type": "address"
        },
        {
          "internalType": "uint256",
          "name": "tokenId",
          "type": "uint256"
        },
        {
          "internalType": "bytes",
          "name": "data",
          "type": "bytes"
        }
      ],
      "name": "safeTransferFrom",
      "outputs": [],
      "stateMutability": "nonpayable",
      "type": "function"
    },
    {
      "inputs": [
        {
          "internalType": "address",
          "name": "operator",
          "type": "address"
        },
        {
          "internalType": "bool",
          "name": "approved",
          "type": "bool"
        }
      ],
      "name": "setApprovalForAll",
      "outputs": [],
      "stateMutability": "nonpayable",
      "type": "function"
    },
    {
      "inputs": [
        {
          "internalType": "bytes4",
          "name": "interfaceId",
          "type": "bytes4"
        }
      ],
      "name": "supportsInterface",
      "outputs": [
        {
          "internalType": "bool",
          "name": "",
          "type": "bool"
        }
      ],
      "stateMutability": "view",
      "type": "function"
    },
    {
      "inputs": [],
      "name": "symbol",
      "outputs": [
        {
          "internalType": "string",
          "name": "",
          "type": "string"
        }
      ],
      "stateMutability": "view",
      "type": "function"
    },
    {
      "inputs": [
        {
          "internalType": "uint256",
          "name": "tokenId",
          "type": "uint256"
        }
      ],
      "name": "tokenURI",
      "outputs": [
        {
          "internalType": "string",
          "name": "",
          "type": "string"
        }
      ],
      "stateMutability": "view",
      "type": "function"
    },
    {
      "inputs": [
        {
          "internalType": "address",
          "name": "from",
          "type": "address"
        },
        {
          "internalType": "address",
          "name": "to",
          "type": "address"
        },
        {
          "internalType": "uint256",
          "name": "tokenId",
          "type": "uint256"
        }
      ],
      "name": "transferFrom",
      "outputs": [],
      "stateMutability": "nonpayable",
      "type": "function"
    }
  ],
  "bytecode": "0x60806040526032600855604051806101e001604052806101aa815260200162004ab86101aa9139600990805190602001906200003d92919062000c24565b506040518061014001604052806101078152602001620049b16101079139600a90805190602001906200007292919062000c24565b506040518061016001604052806040518060400160405280600581526020017f4e6174616c00000000000000000000000000000000000000000000000000000081525081526020016040518060400160405280600a81526020017f4e61766567616e7465730000000000000000000000000000000000000000000081525081526020016040518060400160405280600681526020017f4e617a617265000000000000000000000000000000000000000000000000000081525081526020016040518060400160405280600781526020017f4e697465726f690000000000000000000000000000000000000000000000000081525081526020016040518060400160405280600981526020017f4e6f726d616e646961000000000000000000000000000000000000000000000081525081526020016040518060400160405280600481526020017f4e696c6f0000000000000000000000000000000000000000000000000000000081525081526020016040518060400160405280600a81526020017f4e6f7264657374696e610000000000000000000000000000000000000000000081525081526020016040518060400160405280600681526020017f4e6174756261000000000000000000000000000000000000000000000000000081525081526020016040518060400160405280600a81526020017f4e65706f6d7563656e6f0000000000000000000000000000000000000000000081525081526020016040518060400160405280600981526020017f4e75706f72616e6761000000000000000000000000000000000000000000000081525081526020016040518060400160405280600b81526020017f4e6f766f72697a6f6e7465000000000000000000000000000000000000000000815250815250600b90600b6200031892919062000cb5565b506040518061018001604052806040518060400160405280600881526020017f466c616d696e676f00000000000000000000000000000000000000000000000081525081526020016040518060400160405280600781526020017f466f726d6967610000000000000000000000000000000000000000000000000081525081526020016040518060400160405280600481526020017f466f63610000000000000000000000000000000000000000000000000000000081525081526020016040518060400160405280600681526020017f4675696e6861000000000000000000000000000000000000000000000000000081525081526020016040518060400160405280600681526020017f4672616e676f000000000000000000000000000000000000000000000000000081525081526020016040518060400160405280600781526020017f467261676174610000000000000000000000000000000000000000000000000081525081526020016040518060400160405280600681526020017f46616973616f000000000000000000000000000000000000000000000000000081525081526020016040518060400160405280600781526020017f466c617574696d0000000000000000000000000000000000000000000000000081525081526020016040518060400160405280600981526020017f4672616e636f6c696d000000000000000000000000000000000000000000000081525081526020016040518060400160405280600781526020017f467269736164610000000000000000000000000000000000000000000000000081525081526020016040518060400160405280600581526020017f467275787500000000000000000000000000000000000000000000000000000081525081526020016040518060400160405280600581526020017f467572616f000000000000000000000000000000000000000000000000000000815250815250600c90600c620005f992919062000d1c565b506040518061018001604052806040518060400160405280600681526020017f546162756c65000000000000000000000000000000000000000000000000000081525081526020016040518060400160405280600581526020017f5461636f7300000000000000000000000000000000000000000000000000000081525081526020016040518060400160405280600981526020017f54616d6172696c6c6f000000000000000000000000000000000000000000000081525081526020016040518060400160405280600981526020017f54616e676572696e61000000000000000000000000000000000000000000000081525081526020016040518060400160405280600781526020017f546170696f63610000000000000000000000000000000000000000000000000081525081526020016040518060400160405280600881526020017f546972616d69737500000000000000000000000000000000000000000000000081525081526020016040518060400160405280600881526020017f546f7274696c6c6100000000000000000000000000000000000000000000000081525081526020016040518060400160405280600481526020017f547574750000000000000000000000000000000000000000000000000000000081525081526020016040518060400160405280600581526020017f546f72746100000000000000000000000000000000000000000000000000000081525081526020016040518060400160405280600581526020017f547275666100000000000000000000000000000000000000000000000000000081525081526020016040518060400160405280600681526020017f546f6d617465000000000000000000000000000000000000000000000000000081525081526020016040518060400160405280600781526020017f546f727261646100000000000000000000000000000000000000000000000000815250815250600d90600c620008da92919062000d1c565b506040518060c001604052806040518060400160405280600381526020017f726564000000000000000000000000000000000000000000000000000000000081525081526020016040518060400160405280600781526020017f233038433241380000000000000000000000000000000000000000000000000081525081526020016040518060400160405280600581526020017f626c61636b00000000000000000000000000000000000000000000000000000081525081526020016040518060400160405280600681526020017f79656c6c6f77000000000000000000000000000000000000000000000000000081525081526020016040518060400160405280600481526020017f626c75650000000000000000000000000000000000000000000000000000000081525081526020016040518060400160405280600581526020017f677265656e000000000000000000000000000000000000000000000000000000815250815250600e90600662000a5892919062000d83565b5034801562000a6657600080fd5b506040518060400160405280600981526020017f4368617665734e465400000000000000000000000000000000000000000000008152506040518060400160405280600581526020017f434841564f000000000000000000000000000000000000000000000000000000815250816000908051906020019062000aeb92919062000c24565b50806001908051906020019062000b0492919062000c24565b50505062000b526040518060400160405280601c81526020017f4d657520636f6e747261746f206465204e46542120546368752d68750000000081525062000b5860201b620012711760201c565b62000fa4565b62000bf88160405160240162000b6f919062000eb8565b6040516020818303038152906040527f41304fac000000000000000000000000000000000000000000000000000000007bffffffffffffffffffffffffffffffffffffffffffffffffffffffff19166020820180517bffffffffffffffffffffffffffffffffffffffffffffffffffffffff838183161783525050505062000bfb60201b60201c565b50565b60008151905060006a636f6e736f6c652e6c6f679050602083016000808483855afa5050505050565b82805462000c329062000f2e565b90600052602060002090601f01602090048101928262000c56576000855562000ca2565b82601f1062000c7157805160ff191683800117855562000ca2565b8280016001018555821562000ca2579182015b8281111562000ca157825182559160200191906001019062000c84565b5b50905062000cb1919062000dea565b5090565b82805482825590600052602060002090810192821562000d09579160200282015b8281111562000d0857825182908051906020019062000cf792919062000c24565b509160200191906001019062000cd6565b5b50905062000d18919062000e09565b5090565b82805482825590600052602060002090810192821562000d70579160200282015b8281111562000d6f57825182908051906020019062000d5e92919062000c24565b509160200191906001019062000d3d565b5b50905062000d7f919062000e09565b5090565b82805482825590600052602060002090810192821562000dd7579160200282015b8281111562000dd657825182908051906020019062000dc592919062000c24565b509160200191906001019062000da4565b5b50905062000de6919062000e09565b5090565b5b8082111562000e0557600081600090555060010162000deb565b5090565b5b8082111562000e2d576000818162000e23919062000e31565b5060010162000e0a565b5090565b50805462000e3f9062000f2e565b6000825580601f1062000e53575062000e74565b601f01602090049060005260206000209081019062000e73919062000dea565b5b50565b600062000e848262000edc565b62000e90818562000ee7565b935062000ea281856020860162000ef8565b62000ead8162000f93565b840191505092915050565b6000602082019050818103600083015262000ed4818462000e77565b905092915050565b600081519050919050565b600082825260208201905092915050565b60005b8381101562000f1857808201518184015260208101905062000efb565b8381111562000f28576000848401525b50505050565b6000600282049050600182168062000f4757607f821691505b6020821081141562000f5e5762000f5d62000f64565b5b50919050565b7f4e487b7100000000000000000000000000000000000000000000000000000000600052602260045260246000fd5b6000601f19601f8301169050919050565b6139fd8062000fb46000396000f3fe608060405234801561001057600080fd5b506004361061012c5760003560e01c806370a08231116100ad578063c575757a11610071578063c575757a14610367578063c87b56dd14610397578063cddc8e06146103c7578063de9d132f146103e5578063e985e9c5146103ef5761012c565b806370a08231146102b157806395d89b41146102e1578063a22cb465146102ff578063b187301f1461031b578063b88d4fde1461034b5761012c565b806323b872dd116100f457806323b872dd146101e95780632de38d681461020557806342842e0e14610235578063514dc8c6146102515780636352211e146102815761012c565b806301ffc9a714610131578063060475901461016157806306fdde031461017f578063081812fc1461019d578063095ea7b3146101cd575b600080fd5b61014b60048036038101906101469190612660565b61041f565b6040516101589190612d60565b60405180910390f35b610169610501565b6040516101769190612f7b565b60405180910390f35b610187610512565b6040516101949190612d7b565b60405180910390f35b6101b760048036038101906101b291906126b2565b6105a4565b6040516101c49190612cd0565b60405180910390f35b6101e760048036038101906101e29190612624565b6105ea565b005b61020360048036038101906101fe919061251e565b610702565b005b61021f600480360381019061021a91906126b2565b610762565b60405161022c9190612d7b565b60405180910390f35b61024f600480360381019061024a919061251e565b610880565b005b61026b600480360381019061026691906126b2565b6108a0565b6040516102789190612d7b565b60405180910390f35b61029b600480360381019061029691906126b2565b6109be565b6040516102a89190612cd0565b60405180910390f35b6102cb60048036038101906102c691906124b9565b610a70565b6040516102d89190612f7b565b60405180910390f35b6102e9610b28565b6040516102f69190612d7b565b60405180910390f35b610319600480360381019061031491906125e8565b610bba565b005b610335600480360381019061033091906126b2565b610bd0565b6040516103429190612d7b565b60405180910390f35b6103656004803603810190610360919061256d565b610cee565b005b610381600480360381019061037c91906126b2565b610d50565b60405161038e9190612d7b565b60405180910390f35b6103b160048036038101906103ac91906126b2565b610e6e565b6040516103be9190612d7b565b60405180910390f35b6103cf610f81565b6040516103dc9190612f7b565b60405180910390f35b6103ed610f9f565b005b610409600480360381019061040491906124e2565b6111dd565b6040516104169190612d60565b60405180910390f35b60007f80ac58cd000000000000000000000000000000000000000000000000000000007bffffffffffffffffffffffffffffffffffffffffffffffffffffffff1916827bffffffffffffffffffffffffffffffffffffffffffffffffffffffff191614806104ea57507f5b5e139f000000000000000000000000000000000000000000000000000000007bffffffffffffffffffffffffffffffffffffffffffffffffffffffff1916827bffffffffffffffffffffffffffffffffffffffffffffffffffffffff1916145b806104fa57506104f98261130a565b5b9050919050565b600061050d6007611374565b905090565b6060600080546105219061320f565b80601f016020809104026020016040519081016040528092919081815260200182805461054d9061320f565b801561059a5780601f1061056f5761010080835404028352916020019161059a565b820191906000526020600020905b81548152906001019060200180831161057d57829003601f168201915b5050505050905090565b60006105af82611382565b6004600083815260200190815260200160002060009054906101000a900473ffffffffffffffffffffffffffffffffffffffff169050919050565b60006105f5826109be565b90508073ffffffffffffffffffffffffffffffffffffffff168373ffffffffffffffffffffffffffffffffffffffff161415610666576040517f08c379a000000000000000000000000000000000000000000000000000000000815260040161065d90612f3b565b60405180910390fd5b8073ffffffffffffffffffffffffffffffffffffffff166106856113cd565b73ffffffffffffffffffffffffffffffffffffffff1614806106b457506106b3816106ae6113cd565b6111dd565b5b6106f3576040517f08c379a00000000000000000000000000000000000000000000000000000000081526004016106ea90612ebb565b60405180910390fd5b6106fd83836113d5565b505050565b61071361070d6113cd565b8261148e565b610752576040517f08c379a000000000000000000000000000000000000000000000000000000000815260040161074990612f5b565b60405180910390fd5b61075d838383611523565b505050565b606060006107966107728461178a565b6040516020016107829190612c03565b604051602081830303815290604052611937565b9050600b80549050816107a991906132bb565b9050600b81815481106107e5577f4e487b7100000000000000000000000000000000000000000000000000000000600052603260045260246000fd5b9060005260206000200180546107fa9061320f565b80601f01602080910402602001604051908101604052809291908181526020018280546108269061320f565b80156108735780601f1061084857610100808354040283529160200191610873565b820191906000526020600020905b81548152906001019060200180831161085657829003601f168201915b5050505050915050919050565b61089b83838360405180602001604052806000815250610cee565b505050565b606060006108d46108b08461178a565b6040516020016108c09190612cae565b604051602081830303815290604052611937565b9050600e80549050816108e791906132bb565b9050600e8181548110610923577f4e487b7100000000000000000000000000000000000000000000000000000000600052603260045260246000fd5b9060005260206000200180546109389061320f565b80601f01602080910402602001604051908101604052809291908181526020018280546109649061320f565b80156109b15780601f10610986576101008083540402835291602001916109b1565b820191906000526020600020905b81548152906001019060200180831161099457829003601f168201915b5050505050915050919050565b6000806002600084815260200190815260200160002060009054906101000a900473ffffffffffffffffffffffffffffffffffffffff169050600073ffffffffffffffffffffffffffffffffffffffff168173ffffffffffffffffffffffffffffffffffffffff161415610a67576040517f08c379a0000000000000000000000000000000000000000000000000000000008152600401610a5e90612efb565b60405180910390fd5b80915050919050565b60008073ffffffffffffffffffffffffffffffffffffffff168273ffffffffffffffffffffffffffffffffffffffff161415610ae1576040517f08c379a0000000000000000000000000000000000000000000000000000000008152600401610ad890612e7b565b60405180910390fd5b600360008373ffffffffffffffffffffffffffffffffffffffff1673ffffffffffffffffffffffffffffffffffffffff168152602001908152602001600020549050919050565b606060018054610b379061320f565b80601f0160208091040260200160405190810160405280929190818152602001828054610b639061320f565b8015610bb05780601f10610b8557610100808354040283529160200191610bb0565b820191906000526020600020905b815481529060010190602001808311610b9357829003601f168201915b5050505050905090565b610bcc610bc56113cd565b838361196a565b5050565b60606000610c04610be08461178a565b604051602001610bf09190612be1565b604051602081830303815290604052611937565b9050600c8054905081610c1791906132bb565b9050600c8181548110610c53577f4e487b7100000000000000000000000000000000000000000000000000000000600052603260045260246000fd5b906000526020600020018054610c689061320f565b80601f0160208091040260200160405190810160405280929190818152602001828054610c949061320f565b8015610ce15780601f10610cb657610100808354040283529160200191610ce1565b820191906000526020600020905b815481529060010190602001808311610cc457829003601f168201915b5050505050915050919050565b610cff610cf96113cd565b8361148e565b610d3e576040517f08c379a0000000000000000000000000000000000000000000000000000000008152600401610d3590612f5b565b60405180910390fd5b610d4a84848484611ad7565b50505050565b60606000610d84610d608461178a565b604051602001610d709190612c25565b604051602081830303815290604052611937565b9050600d8054905081610d9791906132bb565b9050600d8181548110610dd3577f4e487b7100000000000000000000000000000000000000000000000000000000600052603260045260246000fd5b906000526020600020018054610de89061320f565b80601f0160208091040260200160405190810160405280929190818152602001828054610e149061320f565b8015610e615780601f10610e3657610100808354040283529160200191610e61565b820191906000526020600020905b815481529060010190602001808311610e4457829003601f168201915b5050505050915050919050565b6060610e7982611382565b6000600660008481526020019081526020016000208054610e999061320f565b80601f0160208091040260200160405190810160405280929190818152602001828054610ec59061320f565b8015610f125780601f10610ee757610100808354040283529160200191610f12565b820191906000526020600020905b815481529060010190602001808311610ef557829003601f168201915b505050505090506000610f23611b33565b9050600081511415610f39578192505050610f7c565b600082511115610f6e578082604051602001610f56929190612b43565b60405160208183030381529060405292505050610f7c565b610f7784611b4a565b925050505b919050565b6000610f8d6007611374565b600854610f9a9190613125565b905090565b6000610fab6007611374565b90506008548110610ff1576040517f08c379a0000000000000000000000000000000000000000000000000000000008152600401610fe890612f1b565b60405180910390fd5b6000610ffc82610762565b9050600061100983610bd0565b9050600061101684610d50565b9050600083838360405160200161102f93929190612b67565b6040516020818303038152906040529050600061104b866108a0565b90506000600982600a856040516020016110689493929190612b98565b604051602081830303815290604052905060006110ad8461108884611bb2565b604051602001611099929190612c47565b604051602081830303815290604052611bb2565b90506000816040516020016110c29190612c8c565b60405160208183030381529060405290506111116040518060400160405280601581526020017f0a2d2d2d2d2d2d2d2d2d2d2d2d2d2d2d2d2d2d2d2d0000000000000000000000815250611271565b61111a81611271565b6111586040518060400160405280601581526020017f2d2d2d2d2d2d2d2d2d2d2d2d2d2d2d2d2d2d2d2d0a0000000000000000000000815250611271565b611162338a611d70565b61116c8982611d8e565b6111766007611e02565b611199604051806060016040528060248152602001613964602491398a33611e18565b7febb98688741ffa4c7589bf325de30cf7becb63de567842e1ccdb6cb949fdc82c338a6040516111ca929190612d37565b60405180910390a1505050505050505050565b6000600560008473ffffffffffffffffffffffffffffffffffffffff1673ffffffffffffffffffffffffffffffffffffffff16815260200190815260200160002060008373ffffffffffffffffffffffffffffffffffffffff1673ffffffffffffffffffffffffffffffffffffffff16815260200190815260200160002060009054906101000a900460ff16905092915050565b611307816040516024016112859190612d7b565b6040516020818303038152906040527f41304fac000000000000000000000000000000000000000000000000000000007bffffffffffffffffffffffffffffffffffffffffffffffffffffffff19166020820180517bffffffffffffffffffffffffffffffffffffffffffffffffffffffff8381831617835250505050611eb7565b50565b60007f01ffc9a7000000000000000000000000000000000000000000000000000000007bffffffffffffffffffffffffffffffffffffffffffffffffffffffff1916827bffffffffffffffffffffffffffffffffffffffffffffffffffffffff1916149050919050565b600081600001549050919050565b61138b81611ee0565b6113ca576040517f08c379a00000000000000000000000000000000000000000000000000000000081526004016113c190612efb565b60405180910390fd5b50565b600033905090565b816004600083815260200190815260200160002060006101000a81548173ffffffffffffffffffffffffffffffffffffffff021916908373ffffffffffffffffffffffffffffffffffffffff160217905550808273ffffffffffffffffffffffffffffffffffffffff16611448836109be565b73ffffffffffffffffffffffffffffffffffffffff167f8c5be1e5ebec7d5bd14f71427d1e84f3dd0314c0f7b2291e5b200ac8c7c3b92560405160405180910390a45050565b60008061149a836109be565b90508073ffffffffffffffffffffffffffffffffffffffff168473ffffffffffffffffffffffffffffffffffffffff1614806114dc57506114db81856111dd565b5b8061151a57508373ffffffffffffffffffffffffffffffffffffffff16611502846105a4565b73ffffffffffffffffffffffffffffffffffffffff16145b91505092915050565b8273ffffffffffffffffffffffffffffffffffffffff16611543826109be565b73ffffffffffffffffffffffffffffffffffffffff1614611599576040517f08c379a000000000000000000000000000000000000000000000000000000000815260040161159090612dfb565b60405180910390fd5b600073ffffffffffffffffffffffffffffffffffffffff168273ffffffffffffffffffffffffffffffffffffffff161415611609576040517f08c379a000000000000000000000000000000000000000000000000000000000815260040161160090612e3b565b60405180910390fd5b611614838383611f4c565b61161f6000826113d5565b6001600360008573ffffffffffffffffffffffffffffffffffffffff1673ffffffffffffffffffffffffffffffffffffffff168152602001908152602001600020600082825461166f9190613125565b925050819055506001600360008473ffffffffffffffffffffffffffffffffffffffff1673ffffffffffffffffffffffffffffffffffffffff16815260200190815260200160002060008282546116c69190613044565b92505081905550816002600083815260200190815260200160002060006101000a81548173ffffffffffffffffffffffffffffffffffffffff021916908373ffffffffffffffffffffffffffffffffffffffff160217905550808273ffffffffffffffffffffffffffffffffffffffff168473ffffffffffffffffffffffffffffffffffffffff167fddf252ad1be2c89b69c2b068fc378daa952ba7f163c4a11628f55a4df523b3ef60405160405180910390a4611785838383611f51565b505050565b606060008214156117d2576040518060400160405280600181526020017f30000000000000000000000000000000000000000000000000000000000000008152509050611932565b600082905060005b600082146118045780806117ed90613272565b915050600a826117fd919061309a565b91506117da565b60008167ffffffffffffffff811115611846577f4e487b7100000000000000000000000000000000000000000000000000000000600052604160045260246000fd5b6040519080825280601f01601f1916602001820160405280156118785781602001600182028036833780820191505090505b5090505b6000851461192b576001826118919190613125565b9150600a856118a091906132bb565b60306118ac9190613044565b60f81b8183815181106118e8577f4e487b7100000000000000000000000000000000000000000000000000000000600052603260045260246000fd5b60200101907effffffffffffffffffffffffffffffffffffffffffffffffffffffffffffff1916908160001a905350600a85611924919061309a565b945061187c565b8093505050505b919050565b60008160405160200161194a9190612b2c565b6040516020818303038152906040528051906020012060001c9050919050565b8173ffffffffffffffffffffffffffffffffffffffff168373ffffffffffffffffffffffffffffffffffffffff1614156119d9576040517f08c379a00000000000000000000000000000000000000000000000000000000081526004016119d090612e5b565b60405180910390fd5b80600560008573ffffffffffffffffffffffffffffffffffffffff1673ffffffffffffffffffffffffffffffffffffffff16815260200190815260200160002060008473ffffffffffffffffffffffffffffffffffffffff1673ffffffffffffffffffffffffffffffffffffffff16815260200190815260200160002060006101000a81548160ff0219169083151502179055508173ffffffffffffffffffffffffffffffffffffffff168373ffffffffffffffffffffffffffffffffffffffff167f17307eab39ab6107e8899845ad3d59bd9653f200f220920489ca2b5937696c3183604051611aca9190612d60565b60405180910390a3505050565b611ae2848484611523565b611aee84848484611f56565b611b2d576040517f08c379a0000000000000000000000000000000000000000000000000000000008152600401611b2490612ddb565b60405180910390fd5b50505050565b606060405180602001604052806000815250905090565b6060611b5582611382565b6000611b5f611b33565b90506000815111611b7f5760405180602001604052806000815250611baa565b80611b898461178a565b604051602001611b9a929190612b43565b6040516020818303038152906040525b915050919050565b60606000825190506000811415611bdb5760405180602001604052806000815250915050611d6b565b60006003600283611bec9190613044565b611bf6919061309a565b6004611c0291906130cb565b90506000602082611c139190613044565b67ffffffffffffffff811115611c52577f4e487b7100000000000000000000000000000000000000000000000000000000600052604160045260246000fd5b6040519080825280601f01601f191660200182016040528015611c845781602001600182028036833780820191505090505b5090506000604051806060016040528060408152602001613988604091399050600181016020830160005b86811015611d285760038101905062ffffff818a015116603f8160121c168401518060081b905060ff603f83600c1c1686015116810190508060081b905060ff603f8360061c1686015116810190508060081b905060ff603f831686015116810190508060e01b90508084526004840193505050611caf565b506003860660018114611d425760028114611d5257611d5d565b613d3d60f01b6002830352611d5d565b603d60f81b60018303525b508484525050819450505050505b919050565b611d8a8282604051806020016040528060008152506120ed565b5050565b611d9782611ee0565b611dd6576040517f08c379a0000000000000000000000000000000000000000000000000000000008152600401611dcd90612e9b565b60405180910390fd5b80600660008481526020019081526020016000209080519060200190611dfd929190612345565b505050565b6001816000016000828254019250508190555050565b611eb2838383604051602401611e3093929190612d9d565b6040516020818303038152906040527fe3849f79000000000000000000000000000000000000000000000000000000007bffffffffffffffffffffffffffffffffffffffffffffffffffffffff19166020820180517bffffffffffffffffffffffffffffffffffffffffffffffffffffffff8381831617835250505050611eb7565b505050565b60008151905060006a636f6e736f6c652e6c6f679050602083016000808483855afa5050505050565b60008073ffffffffffffffffffffffffffffffffffffffff166002600084815260200190815260200160002060009054906101000a900473ffffffffffffffffffffffffffffffffffffffff1673ffffffffffffffffffffffffffffffffffffffff1614159050919050565b505050565b505050565b6000611f778473ffffffffffffffffffffffffffffffffffffffff16612148565b156120e0578373ffffffffffffffffffffffffffffffffffffffff1663150b7a02611fa06113cd565b8786866040518563ffffffff1660e01b8152600401611fc29493929190612ceb565b602060405180830381600087803b158015611fdc57600080fd5b505af192505050801561200d57506040513d601f19601f8201168201806040525081019061200a9190612689565b60015b612090573d806000811461203d576040519150601f19603f3d011682016040523d82523d6000602084013e612042565b606091505b50600081511415612088576040517f08c379a000000000000000000000000000000000000000000000000000000000815260040161207f90612ddb565b60405180910390fd5b805181602001fd5b63150b7a0260e01b7bffffffffffffffffffffffffffffffffffffffffffffffffffffffff1916817bffffffffffffffffffffffffffffffffffffffffffffffffffffffff1916149150506120e5565b600190505b949350505050565b6120f7838361216b565b6121046000848484611f56565b612143576040517f08c379a000000000000000000000000000000000000000000000000000000000815260040161213a90612ddb565b60405180910390fd5b505050565b6000808273ffffffffffffffffffffffffffffffffffffffff163b119050919050565b600073ffffffffffffffffffffffffffffffffffffffff168273ffffffffffffffffffffffffffffffffffffffff1614156121db576040517f08c379a00000000000000000000000000000000000000000000000000000000081526004016121d290612edb565b60405180910390fd5b6121e481611ee0565b15612224576040517f08c379a000000000000000000000000000000000000000000000000000000000815260040161221b90612e1b565b60405180910390fd5b61223060008383611f4c565b6001600360008473ffffffffffffffffffffffffffffffffffffffff1673ffffffffffffffffffffffffffffffffffffffff16815260200190815260200160002060008282546122809190613044565b92505081905550816002600083815260200190815260200160002060006101000a81548173ffffffffffffffffffffffffffffffffffffffff021916908373ffffffffffffffffffffffffffffffffffffffff160217905550808273ffffffffffffffffffffffffffffffffffffffff16600073ffffffffffffffffffffffffffffffffffffffff167fddf252ad1be2c89b69c2b068fc378daa952ba7f163c4a11628f55a4df523b3ef60405160405180910390a461234160008383611f51565b5050565b8280546123519061320f565b90600052602060002090601f01602090048101928261237357600085556123ba565b82601f1061238c57805160ff19168380011785556123ba565b828001600101855582156123ba579182015b828111156123b957825182559160200191906001019061239e565b5b5090506123c791906123cb565b5090565b5b808211156123e45760008160009055506001016123cc565b5090565b60006123fb6123f684612fbb565b612f96565b90508281526020810184848401111561241357600080fd5b61241e8482856131cd565b509392505050565b60008135905061243581613907565b92915050565b60008135905061244a8161391e565b92915050565b60008135905061245f81613935565b92915050565b60008151905061247481613935565b92915050565b600082601f83011261248b57600080fd5b813561249b8482602086016123e8565b91505092915050565b6000813590506124b38161394c565b92915050565b6000602082840312156124cb57600080fd5b60006124d984828501612426565b91505092915050565b600080604083850312156124f557600080fd5b600061250385828601612426565b925050602061251485828601612426565b9150509250929050565b60008060006060848603121561253357600080fd5b600061254186828701612426565b935050602061255286828701612426565b9250506040612563868287016124a4565b9150509250925092565b6000806000806080858703121561258357600080fd5b600061259187828801612426565b94505060206125a287828801612426565b93505060406125b3878288016124a4565b925050606085013567ffffffffffffffff8111156125d057600080fd5b6125dc8782880161247a565b91505092959194509250565b600080604083850312156125fb57600080fd5b600061260985828601612426565b925050602061261a8582860161243b565b9150509250929050565b6000806040838503121561263757600080fd5b600061264585828601612426565b9250506020612656858286016124a4565b9150509250929050565b60006020828403121561267257600080fd5b600061268084828501612450565b91505092915050565b60006020828403121561269b57600080fd5b60006126a984828501612465565b91505092915050565b6000602082840312156126c457600080fd5b60006126d2848285016124a4565b91505092915050565b6126e481613159565b82525050565b6126f38161316b565b82525050565b600061270482613001565b61270e8185613017565b935061271e8185602086016131dc565b612727816133a8565b840191505092915050565b600061273d8261300c565b6127478185613028565b93506127578185602086016131dc565b612760816133a8565b840191505092915050565b60006127768261300c565b6127808185613039565b93506127908185602086016131dc565b80840191505092915050565b600081546127a98161320f565b6127b38186613039565b945060018216600081146127ce57600181146127df57612812565b60ff19831686528186019350612812565b6127e885612fec565b60005b8381101561280a578154818901526001820191506020810190506127eb565b838801955050505b50505092915050565b6000612828603283613028565b9150612833826133b9565b604082019050919050565b600061284b602583613028565b915061285682613408565b604082019050919050565b600061286e601c83613028565b915061287982613457565b602082019050919050565b6000612891602483613028565b915061289c82613480565b604082019050919050565b60006128b4601983613028565b91506128bf826134cf565b602082019050919050565b60006128d7600f83613039565b91506128e2826134f8565b600f82019050919050565b60006128fa600d83613039565b915061290582613521565b600d82019050919050565b600061291d602983613028565b91506129288261354a565b604082019050919050565b6000612940601083613039565b915061294b82613599565b601082019050919050565b6000612963602e83613028565b915061296e826135c2565b604082019050919050565b6000612986600283613039565b915061299182613611565b600282019050919050565b60006129a9603e83613028565b91506129b48261363a565b604082019050919050565b60006129cc602083613028565b91506129d782613689565b602082019050919050565b60006129ef601083613039565b91506129fa826136b2565b601082019050919050565b6000612a12600a83613039565b9150612a1d826136db565b600a82019050919050565b6000612a35601883613028565b9150612a4082613704565b602082019050919050565b6000612a58603583613028565b9150612a638261372d565b604082019050919050565b6000612a7b602183613028565b9150612a868261377c565b604082019050919050565b6000612a9e601d83613039565b9150612aa9826137cb565b601d82019050919050565b6000612ac1600583613039565b9150612acc826137f4565b600582019050919050565b6000612ae4602e83613028565b9150612aef8261381d565b604082019050919050565b6000612b07606d83613039565b9150612b128261386c565b606d82019050919050565b612b26816131c3565b82525050565b6000612b38828461276b565b915081905092915050565b6000612b4f828561276b565b9150612b5b828461276b565b91508190509392505050565b6000612b73828661276b565b9150612b7f828561276b565b9150612b8b828461276b565b9150819050949350505050565b6000612ba4828761279c565b9150612bb0828661276b565b9150612bbc828561279c565b9150612bc8828461276b565b9150612bd3826128ed565b915081905095945050505050565b6000612bec826128ca565b9150612bf8828461276b565b915081905092915050565b6000612c0e82612933565b9150612c1a828461276b565b915081905092915050565b6000612c30826129e2565b9150612c3c828461276b565b915081905092915050565b6000612c5282612a05565b9150612c5e828561276b565b9150612c6982612afa565b9150612c75828461276b565b9150612c8082612979565b91508190509392505050565b6000612c9782612a91565b9150612ca3828461276b565b915081905092915050565b6000612cb982612ab4565b9150612cc5828461276b565b915081905092915050565b6000602082019050612ce560008301846126db565b92915050565b6000608082019050612d0060008301876126db565b612d0d60208301866126db565b612d1a6040830185612b1d565b8181036060830152612d2c81846126f9565b905095945050505050565b6000604082019050612d4c60008301856126db565b612d596020830184612b1d565b9392505050565b6000602082019050612d7560008301846126ea565b92915050565b60006020820190508181036000830152612d958184612732565b905092915050565b60006060820190508181036000830152612db78186612732565b9050612dc66020830185612b1d565b612dd360408301846126db565b949350505050565b60006020820190508181036000830152612df48161281b565b9050919050565b60006020820190508181036000830152612e148161283e565b9050919050565b60006020820190508181036000830152612e3481612861565b9050919050565b60006020820190508181036000830152612e5481612884565b9050919050565b60006020820190508181036000830152612e74816128a7565b9050919050565b60006020820190508181036000830152612e9481612910565b9050919050565b60006020820190508181036000830152612eb481612956565b9050919050565b60006020820190508181036000830152612ed48161299c565b9050919050565b60006020820190508181036000830152612ef4816129bf565b9050919050565b60006020820190508181036000830152612f1481612a28565b9050919050565b60006020820190508181036000830152612f3481612a4b565b9050919050565b60006020820190508181036000830152612f5481612a6e565b9050919050565b60006020820190508181036000830152612f7481612ad7565b9050919050565b6000602082019050612f906000830184612b1d565b92915050565b6000612fa0612fb1565b9050612fac8282613241565b919050565b6000604051905090565b600067ffffffffffffffff821115612fd657612fd5613379565b5b612fdf826133a8565b9050602081019050919050565b60008190508160005260206000209050919050565b600081519050919050565b600081519050919050565b600082825260208201905092915050565b600082825260208201905092915050565b600081905092915050565b600061304f826131c3565b915061305a836131c3565b9250827fffffffffffffffffffffffffffffffffffffffffffffffffffffffffffffffff0382111561308f5761308e6132ec565b5b828201905092915050565b60006130a5826131c3565b91506130b0836131c3565b9250826130c0576130bf61331b565b5b828204905092915050565b60006130d6826131c3565b91506130e1836131c3565b9250817fffffffffffffffffffffffffffffffffffffffffffffffffffffffffffffffff048311821515161561311a576131196132ec565b5b828202905092915050565b6000613130826131c3565b915061313b836131c3565b92508282101561314e5761314d6132ec565b5b828203905092915050565b6000613164826131a3565b9050919050565b60008115159050919050565b60007fffffffff0000000000000000000000000000000000000000000000000000000082169050919050565b600073ffffffffffffffffffffffffffffffffffffffff82169050919050565b6000819050919050565b82818337600083830152505050565b60005b838110156131fa5780820151818401526020810190506131df565b83811115613209576000848401525b50505050565b6000600282049050600182168061322757607f821691505b6020821081141561323b5761323a61334a565b5b50919050565b61324a826133a8565b810181811067ffffffffffffffff8211171561326957613268613379565b5b80604052505050565b600061327d826131c3565b91507fffffffffffffffffffffffffffffffffffffffffffffffffffffffffffffffff8214156132b0576132af6132ec565b5b600182019050919050565b60006132c6826131c3565b91506132d1836131c3565b9250826132e1576132e061331b565b5b828206905092915050565b7f4e487b7100000000000000000000000000000000000000000000000000000000600052601160045260246000fd5b7f4e487b7100000000000000000000000000000000000000000000000000000000600052601260045260246000fd5b7f4e487b7100000000000000000000000000000000000000000000000000000000600052602260045260246000fd5b7f4e487b7100000000000000000000000000000000000000000000000000000000600052604160045260246000fd5b6000601f19601f8301169050919050565b7f4552433732313a207472616e7366657220746f206e6f6e20455243373231526560008201527f63656976657220696d706c656d656e7465720000000000000000000000000000602082015250565b7f4552433732313a207472616e736665722066726f6d20696e636f72726563742060008201527f6f776e6572000000000000000000000000000000000000000000000000000000602082015250565b7f4552433732313a20746f6b656e20616c7265616479206d696e74656400000000600082015250565b7f4552433732313a207472616e7366657220746f20746865207a65726f2061646460008201527f7265737300000000000000000000000000000000000000000000000000000000602082015250565b7f4552433732313a20617070726f766520746f2063616c6c657200000000000000600082015250565b7f534547554e44415f50414c415652410000000000000000000000000000000000600082015250565b7f3c2f746578743e3c2f7376673e00000000000000000000000000000000000000600082015250565b7f4552433732313a2061646472657373207a65726f206973206e6f74206120766160008201527f6c6964206f776e65720000000000000000000000000000000000000000000000602082015250565b7f5052494d454952415f50414c4156524100000000000000000000000000000000600082015250565b7f45524337323155524953746f726167653a2055524920736574206f66206e6f6e60008201527f6578697374656e7420746f6b656e000000000000000000000000000000000000602082015250565b7f227d000000000000000000000000000000000000000000000000000000000000600082015250565b7f4552433732313a20617070726f76652063616c6c6572206973206e6f7420746f60008201527f6b656e206f776e6572206e6f7220617070726f76656420666f7220616c6c0000602082015250565b7f4552433732313a206d696e7420746f20746865207a65726f2061646472657373600082015250565b7f54455243454952415f50414c4156524100000000000000000000000000000000600082015250565b7f7b226e616d65223a202200000000000000000000000000000000000000000000600082015250565b7f4552433732313a20696e76616c696420746f6b656e2049440000000000000000600082015250565b7f5175656d2063756e686f752c206d696e746f752c207175656d206e616f206d6960008201527f6e746f752c206e616f2063756e6861206d616973210000000000000000000000602082015250565b7f4552433732313a20617070726f76616c20746f2063757272656e74206f776e6560008201527f7200000000000000000000000000000000000000000000000000000000000000602082015250565b7f646174613a6170706c69636174696f6e2f6a736f6e3b6261736536342c000000600082015250565b7f434f4c4f52000000000000000000000000000000000000000000000000000000600082015250565b7f4552433732313a2063616c6c6572206973206e6f7420746f6b656e206f776e6560008201527f72206e6f7220617070726f766564000000000000000000000000000000000000602082015250565b7f222c20226465736372697074696f6e223a2022556d6120636f6c6563616f206160008201527f636c616d61646120652066616d6f7361206465204e465473206d61726176696c60208201527f686f736f732e222c2022696d616765223a2022646174613a696d6167652f737660408201527f672b786d6c3b6261736536342c00000000000000000000000000000000000000606082015250565b61391081613159565b811461391b57600080fd5b50565b6139278161316b565b811461393257600080fd5b50565b61393e81613177565b811461394957600080fd5b50565b613955816131c3565b811461396057600080fd5b5056fe556d204e465420636f6d20494420257320666f692063756e6861646f20706172612025734142434445464748494a4b4c4d4e4f505152535455565758595a6162636465666768696a6b6c6d6e6f707172737475767778797a303132333435363738392b2fa2646970667358221220b4071bd9e97cb912363df7fe24c354fb7d8d3b7c7a580b4217a1e1f54fe547b764736f6c634300080100333b207d202020202e73746f7032207b2073746f702d636f6c6f723a2077686974653b2073746f702d6f7061636974793a20303b207d202020202e73746f7033207b2073746f702d636f6c6f723a2079656c6c6f773b207d2020202020203c2f7374796c653e20203c726563742077696474683d273130302527206865696768743d2731303025272066696c6c3d2775726c28234772616469656e74312927202f3e20203c7465787420202020783d273530252720202020793d273530252720202020636c6173733d27626173652720202020646f6d696e616e742d626173656c696e653d276d6964646c652720202020746578742d616e63686f723d276d6964646c652720203e3c7376672020786d6c6e733d27687474703a2f2f7777772e77332e6f72672f323030302f7376672720207072657365727665417370656374526174696f3d27784d696e594d696e206d65657427202076696577426f783d273020302033353020333530273e20203c646566733e202020203c6c696e6561724772616469656e742069643d274772616469656e7431273e2020202020203c73746f7020636c6173733d2773746f703127206f66667365743d273025272f3e2020202020203c73746f7020636c6173733d2773746f703227206f66667365743d27353025272f3e2020202020203c73746f7020636c6173733d2773746f703327206f66667365743d2731303025272f3e202020203c2f6c696e6561724772616469656e743e20203c2f646566733e20203c7374796c653e202020202e62617365207b20202020202066696c6c3a20626c75653b202020202020666f6e742d66616d696c793a2073657269663b202020202020666f6e742d73697a653a20323070783b202020202020636f6c6f723a20234646463b202020207d202020202e73746f7031207b2073746f702d636f6c6f723a20",
  "linkReferences": {},
  "deployedLinkReferences": {}
}